:020000040800F2
:10000000D804002001010008AB1B000847140008B9
:10001000A91B0008F70300080920000800000000E1
:10002000000000000000000000000000711C00083B
:10003000F903000800000000CD1B0008731C000835
:100040001B0100081B0100081B0100081B01000820
:100050001B0100081B0100081B0100081B01000810
:100060001B0100081B0100081B0100081B01000800
:100070001B0100081B0100081B0100081B010008F0
:100080001B0100081B0100081B0100081B010008E0
:100090001B0100081B0100081B0100081B010008D0
:1000A0001B0100081B0100081B0100081B010008C0
:1000B0001B0100081B0100081B0100085514000863
:1000C000491400081B0100081B0100081B0100085F
:1000D0001B010008FD1F00081B0100081B01000890
:1000E0001B0100081B0100081B010008DFF80CD0F1
:1000F00000F060F90048004781270008D80400207C
:100100000648804706480047FEE7FEE7FEE7FEE7B1
:10011000FEE7FEE7FEE7FEE7FEE7FEE7B91C0008A4
:10012000ED000008202A04DB203A21FA02F0002129
:10013000704721FA02F3D040C2F1200291400843F7
:1001400019467047D2B201E000F8012B491EFBD2DC
:1001500070470022F6E710B513460A4604461946D2
:10016000FFF7F0FF204610BD2DE9FE4F81EA0304A2
:1001700004F0004421F0004100944FF0000B23F004
:10018000004350EA01045ED052EA03045BD0C3F39B
:100190000A54C1F30A552C44A4F2F3340194A0FB91
:1001A0000254C1F3130141F48011C3F3130343F468
:1001B000801301FB024400FB034E840A970A44EAC1
:1001C000815447EA8357A4FB076802958D0A05FB13
:1001D00007854FEA932C04FB0C542705029D4FEA38
:1001E000065847EA1637B5EB08056EEB070C870E85
:1001F000920E47EA811742EA8312A7FB0201B6EB8F
:100200000B0164EB00042B0D43EA0C335E1844EB46
:100210001C50DA465146E7FB0201C5F313044FEACE
:100220000B3343EA14534FEA0432019C43EA0603BA
:10023000A4F10C040294009CCDE900B400F06CF829
:1002400003B0BDE8F08F00200146F9E70EB540F29B
:10025000334102910021CDE900110A460B4600F01E
:100260005BF803B000BDC1F30A5210B5C1F313012E
:1002700040F2FF3341F480119A4201DA002010BDB0
:1002800040F233439A42A2F2334203DC5242FFF778
:1002900049FF10BD904010BD2DE9F05F05460020DC
:1002A00092469B4688460646814640241BE02846E7
:1002B000414647462246FFF735FF53465A46C01A85
:1002C000914110D311461846224600F085F82D1AA8
:1002D00067EB01084F4622460120002100F07CF820
:1002E00017EB00094E41201EA4F10104DFDC484653
:1002F00031462A464346BDE8F09F10B5141E73F1FF
:10030000000408DA401C41F1000192185B411A43D5
:1003100001D120F0010010BD2DE9F04D92469B4621
:1003200011B1B1FA81F202E0B0FA80F220329046C7
:1003300000F052F804460F4640EA0A0041EA0B0179
:1003400053465A46084313D0114653EA010019D0C8
:10035000C8F140025046FFF7E5FE05460E465046FE
:100360005946424600F038F8084305D0012004E021
:1003700020463946BDE8F08D0020054346EAE07688
:100380002C4337430A986305E40AA0EB08000022D7
:10039000FD0A44EA47540A3002D500200146E9E745
:1003A000010510196941DDE9084500196941BDE8F9
:1003B000F04DA2E7064C074D06E0E06840F001036F
:1003C00094E8070098471034AC42F6D3FFF792FE4A
:1003D000702B0008902B0008202A04DB203A00FA3A
:1003E00002F1002070479140C2F1200320FA03F38C
:1003F000194390407047FEE77047000010B590F831
:1004000021100024022903D00421816301243DE04E
:1004100001680A6822F00E020A6001680A6822F088
:1004200001020A601A4A0168914201D1012121E0CA
:10043000174A1432914201D110211BE0144A28328C
:10044000914201D1891515E0114A3C32914201D106
:1004500089140FE00E4A5032914202D14FF480319C
:1004600008E00B4A6432914202D14FF4801101E05E
:100470004FF08071064A083A5160012180F821103E
:10048000002180F82010416B01B18847204610BD43
:100490000800024070B5044600F0F2F80546601C02
:1004A00002D004480078044400F0EAF8401BA0425F
:1004B000FAD370BD1C0000202DE9F84FDFF890A1A1
:1004C00000220AF1040B144601274FF00F090BF12B
:1004D000040E00BF0B6807FA04F52B40AB4274D141
:1004E000DFF870C14E68A6EB0C0866452BD00DDC1A
:1004F000032E34D005DC36B3012E19D0022E2FD1B5
:100500001BE0112E16D0122E2AD119E0B8F5881F43
:1005100019D006DCB8F5803F15D0B8F5801F1FD183
:1005200011E0B8F5001F0ED0B8F5041F18D10AE08D
:10053000CA6815E0CA68121D12E0CA6808320FE0E6
:10054000CA680C320CE08A682AB1012A4FF008020E
:1005500003D0456104E0042202E0056100E00022CE
:10056000FF2B01D8064601E000F104064FEA84059E
:1005700001D9A5F12005D6F800C009FA05F82CEA42
:10058000080C02FA05F54CEA050CC6F800C04D68E7
:10059000ED0057D5304DAE6946F00106AE61AD694C
:1005A00024F0030605F0010500952C4D06EB050C23
:1005B000DCF80850A6074FEA167809FA08F6B543A2
:1005C000274EB04202D1002610E03BE0254EB0425B
:1005D00001D101260AE0244EB04201D1022605E0F5
:1005E000224EB04201D1032600E0042606FA08F6A6
:1005F0002E43CCF808604D68DAF80060ED035546EC
:1006000001D51E4300E09E432E604D68DBF800607C
:10061000AD035D4601D51E4300E09E432E604D684C
:10062000DEF80060ED02754601D51E4300E09E43F2
:100630002E604D68AD020E4D2E6801D51E4300E0C0
:100640009E432E60641C102CFFF444AFBDE8F88F6D
:1006500000040140000011100010024000000140A1
:1006600000080140000C014000100140001401404E
:100670000C0401400AB1016170470904FBE7000066
:1006800001488068704700001C00002070477047D8
:1006900070B5044600684569466830490D420DD082
:1006A000F1050BD5216C41F0010121646FF48071DB
:1006B00041612068016841F40041016015F4813F07
:1006C00009D0F00507D5206C40F0020020642168B5
:1006D0006FF40070486115F4823F28D0F00526D5EC
:1006E00094F83E30628D94F83D00216B202B08D1A8
:1006F0003AB921280ED029280CD0282801D1212947
:1007000008D0206C40F00400206494F83E001028CB
:1007100004D008E0204601F097F908E0206801685D
:1007200041F40071016021686FF48060486115F444
:10073000843F09D0F00507D5206C40F00800206404
:1007400021686FF400604861206C002804D02046C6
:10075000BDE8704000F0ACBE70BD000000010100BB
:100760002DE9F05F02680446D2F818805569566892
:1007700090F83E007449DFF8D0A1DFF8CCB1DFF883
:10078000CC918F1C0AF17E0A0BF13E0B102812D07F
:10079000402810D00D425BD0B00559D59369204652
:1007A0000021DB435B0700D501219269D243120689
:1007B00048D5828947E015F0011F05D0B00503D563
:1007C000204601F014F910E05F48801D054205D075
:1007D000B00503D5606CC0B2106106E00D4204D0D4
:1007E000B00502D5204601F075F818EA090F14D0BB
:1007F00015EA0A0F08D0700506D53D4206D12046FD
:10080000BDE8F05F00F0E2BF3D421FD0B0051DD54E
:100810002046BDE8F05F00F098BF15EA0B0F08D046
:10082000700506D53D4206D12046BDE8F05F00F0D8
:1008300035BF3D420AD0B00508D52046BDE8F05F7F
:1008400000F0C8BE028B92B2FFF721FFBDE8F09F17
:100850003D480E30054206D0B00504D52046BDE81F
:10086000F05F01F033B918EA090F4FF0280134D0D6
:1008700015EA0A0F23D0700521D53D4221D194F805
:100880003D302046628D002AE0D0426A541C44620A
:10089000046812782261428D521E4285428D002AE0
:1008A000D4D1292BD2D10268536823F480635360DA
:1008B0002122026380F83D1000F031F9C6E73D4285
:1008C000C4D0B005C2D5608D0028BFD0606A411C7D
:1008D000616221680078086131E015EA0B0F22D0CF
:1008E000700520D53D4220D194F83D302046648DDE
:1008F000002CABD01469426A551C45621470428DBD
:10090000521E4285428D002AA0D12A2B9ED1026818
:10091000536823F4806353602222026380F83D1001
:1009200000F0FCF892E73D4290D0B0058ED5608D86
:1009300000288BD01169606A421C62620170608D70
:10094000401E608582E700000200010004001000E4
:100950007047000070B504001BD094F83D000025DE
:1009600020B984F83C50204600F09AF8242084F8FE
:100970003D002068016821F00101016000F01CFACF
:10098000404A6168914201D83F4900E03F498842AE
:1009900001D2012070BD3E492368B0FBF1F15960DE
:1009A0006368934206D94FF4967359434FF47A73B0
:1009B000B1FBF3F12368491C19626168914210D8B8
:1009C0004900401EB0FBF1F2521CC2F30B02042A94
:1009D00001D2042022E0B0FBF1F0401CC0F30B0078
:1009E0001CE0A368CBB301EBC10202EB0116421E6F
:1009F000B2FBF6F2521C42F48042120536D06BB3C1
:100A000001EBC10202EB0111401EB0FBF1F0401CF2
:100A1000C0F30B0040F4804040F400402168C861FE
:100A2000D4E90701084321680860D4E903100843AA
:100A300021688860D4E9050108432168C8602068FE
:100A4000016841F0010101602564202084F83D0027
:100A5000256384F83E50002070BD00E008E001EB03
:100A60004106421EB2FBF6F2521CC6E70120D5E752
:100A700001EB4101401EB0FBF1F0401CC0F30B0044
:100A8000CAE70000A086010080841E0000093D0026
:100A900040420F0070477047704770477047000032
:100AA00010B586B000210091019102910391006878
:100AB000174988422AD1174CA06940F00800A0616C
:100AC000A069694600F008000490C0200090122040
:100AD0000190032003901048FFF7EEFCE06940F41A
:100AE0000010E061E069002200F40010049011465B
:100AF0001F2000F079F81F2000F06AF8002211464C
:100B0000202000F071F8202000F062F806B010BD3F
:100B10000054004000100240000C01407047704734
:100B20000248816802781144816070471C000020EF
:100B3000074810B5016841F010010160032000F082
:100B400073F8002000F006F800F024F8002010BD33
:100B50000020024070B50D4D04464FF47A7128789C
:100B6000B1FBF0F00A490968B1FBF0F000F0FCFAC3
:100B700048B9102C07D200222146501E00F034F84C
:100B800000206C6070BD012070BD00001C000020C2
:100B9000280000200C4808B5816941F001018161FD
:100BA000816901F001010091C16941F08051C16189
:100BB000C06900F0805000900448416821F0E06175
:100BC00041F00071416008BD00100240000001408A
:100BD00000F01F02012191404009800000F1E02057
:100BE000C0F8001170470000F0B40E4B1B680C46B3
:100BF000C3F30223C3F10705042D00D90425191DF1
:100C0000072901D2002300E0DB1E012606FA05F1C8
:100C1000491E214099409E40761E16403143F0BC4B
:100C200000F0C4BF0CED00E0064900F007020868C0
:100C30004FF6FF03184040EA0220034A10430860C1
:100C4000704700000CED00E00000FA052DE9F047C8
:100C5000DFF8548105460E46D8F8000000F0070082
:100C6000B0420CD2D8F8001021F007013143C8F887
:100C70000010D8F8000000F00700B0426FD12868DB
:100C80004A4C810712D5400703D5606840F4E06004
:100C900060602878000703D5606840F460506060A9
:100CA0006068A96820F0F000084360602878C007F9
:100CB00044D06868012816D02168022816D0890718
:100CC00000294CDA616821F0030101436160FFF7FC
:100CD000D7FC6968074641F2883001290ED0022905
:100CE000814618D026E021688903E9E78901E7E712
:100CF000FFF7C6FCC11B494501D918E08146606871
:100D0000C0F381000128F3D118E000BFFFF7B8FC61
:100D1000C11B49450BD86068C0F381000228F5D19A
:100D20000CE000BFFFF7ACFCC11B494502D9032012
:100D3000BDE8F087606810F00C0FF3D1D8F8001010
:100D4000404601F00701B1420BD9016821F00701CB
:100D500031430160006800F00700B04201D001207B
:100D6000E6E72878400705D56068E96820F4E06088
:100D7000084360602878000706D56068296920F478
:100D8000605040EAC100606000F036F86168084ACF
:100D9000C1F30311515CC840064908600020FFF709
:100DA000D9FE0020C4E700000020024000100240ED
:100DB000E42A000828000020044805490068496822
:100DC000044AC1F30221515CC8407047280000204A
:100DD00000100240F42A00080448054900684968E8
:100DE000044AC1F3C221515CC8407047280000206A
:100DF00000100240F42A000812A185B00FC98DE846
:100E00000F0014A0144A006804905168134801F0C0
:100E10000C03042B10D0082B0ED1C1F38343C9035C
:100E20001DF803000AD5516804AAC1F34041515C82
:100E30000A4A5043B0FBF1F005B0704708494843F7
:100E4000FAE7000002030405060708090A0B0C0D67
:100E50000E0F1010010200000010024000127A0074
:100E600000093D002DE9F84F04460078B94DC00750
:100E700048D06868C0F38100012807D06868C0F3D3
:100E80008100022809D16868C00306D5286880035C
:100E900038D5606800286FD034E06068B0F5803FD6
:100EA0000BD010B1B0F5A02F11D0286820F48030FD
:100EB0002860286820F4802002E0286840F4803010
:100EC0002860606888B1FFF7DBFB064609E0286808
:100ED00040F480202860F0E7FFF7D2FB801B6428F5
:100EE00075D828688003F7D50CE0FFF7C9FB0646E4
:100EF00005E000BFFFF7C4FB801B6428F0D828681A
:100F00008003F7D42078944E80074FF001094FF00A
:100F100000083BD5686810F00C0F07D06868C0F374
:100F20008100022809D16868C00306D428688007B8
:100F300014D5206901281FD110E02069B0B1C6F88E
:100F40000090FFF79DFB074605E000BFFFF798FB09
:100F5000C01B0228C4D828688007F7D528686169B3
:100F600020F0F80040EAC10028600FE0C6F80080D9
:100F7000FFF786FB074606E0E9E000BFFFF780FBCE
:100F8000C01B022823D828688007F7D420780007E0
:100F90002CD57248A169D9B1C0F80090FFF770FB59
:100FA000074604E0FFF76CFBC01B02280FD8686AF5
:100FB0008007F7D56A484FF4FA510068B0FBF1F0AA
:100FC000009000BF0098411E0091FAD20EE080E030
:100FD000C0F80080FFF754FB074604E0FFF750FB22
:100FE000C01B022875D8686A8007F7D420784007AC
:100FF00060D5E8690027C00008D4E86940F0805057
:10100000E861E869012700F08050009055480168C8
:10101000C90513D40168834641F480710160FFF76C
:101020002FFB824606E000BFFFF72AFBA0EB0A0079
:1010300064284ED8DBF80000C005F5D5E06801282B
:101040000AD008B1052813D0286A20F001002862D0
:10105000286A20F0040002E0286A40F001002862BB
:10106000E06841F2883B98B1FFF70AFB82460BE04B
:10107000286A40F004002862EEE700BFFFF700FB9B
:10108000A0EB0A0159455AD8286A8007F6D50CE02A
:10109000FFF7F6FA824605E0FFF7F2FAA0EB0A0145
:1010A00059454CD8286A8007F6D41FB1E86920F06A
:1010B0008050E861E06988B36968C1F38101022961
:1010C00045D00228C6F8608004D0FFF7D9FA04465C
:1010D00038E034E0FFF7D4FA074604E0FFF7D0FA2F
:1010E000C01B02282BD828688001F7D4206AB0F5ED
:1010F000803F05D16868A16820F40030084368602B
:10110000D4E908010843696821F474110843686050
:10111000C6F86090FFF7B4FA044606E015E000BF99
:10112000FFF7AEFA001B022809D828688001F7D51E
:101130000BE000BFFFF7A4FA001B022802D903202E
:10114000BDE8F88F28688001F4D40020F8E701207A
:10115000F6E70000001002400000424280044242D4
:10116000280000200070004010B5401EB0F1807FC4
:1011700001D3012010BD4FF0E02460610F21601702
:1011800000F014FD0020A06107202061002010BDA8
:101190007047000070B5026804461068D168536952
:1011A00010F00F0F50D003F0010501F49076354395
:1011B0005DD0C20705D0CA0503D5E26B42F001023B
:1011C000E263420705D5DA0703D0E26B42F0020280
:1011D000E263820705D5DA0703D0E26B42F004022E
:1011E000E263020705D5DA0703D0E26B42F008029A
:1011F000E263E26B002A33D0800604D5880602D56C
:10120000204600F093FD20684069E16BC0F3801038
:10121000090700D428B3204600F07AFD2068416910
:1012200049061AD5416921F040014161606BA0B1C6
:101230001B494163606BFFF7E1F8002810D0606B39
:10124000416BBDE870400847830610D58B060ED56C
:101250002046BDE8704000F069BD2046FFF798FFCA
:1012600070BD2046FFF794FF0020E06370BD0306C9
:1012700006D50B0604D52046BDE8704000F05ABEE6
:101280004006F3D54806F1D5D168204621F040014B
:10129000D160202184F8391000F0D4F870BD00002E
:1012A000011D000870B5040004D094F83900002531
:1012B00010B106E0012070BD84F83850204600F0DF
:1012C00023F8242084F839002068C16821F40051F3
:1012D000C160204600F076FD2068016921F490414C
:1012E00001612068416921F02A0141612068C168DB
:1012F00041F40051C160E563202084F8390084F88E
:101300003A00002070BD000030B585B00024009484
:101310000194029403940068184988422CD118481B
:10132000816941F480418161816901F480410491C6
:10133000816941F0040181618069124D00F004006F
:1013400004904FF40070009002200190032003905D
:1013500069462846FFF7B0F82815CDE9000469462C
:1013600028460294FFF7A8F8002211462520FFF72F
:101370003BFC2520FFF72CFC05B030BD00380140B8
:10138000001002400008014070472DE9F843044670
:1013900090F839001F4616460D46202850D1A5B1B9
:1013A0009EB194F8380001284AD0012084F8380012
:1013B0004FF00008C4F83C80212084F83900FFF782
:1013C0005FF9A6848146E68426E00120BDE8F88323
:1013D000E08C401EE084A0684B46B0F5805F4FF083
:1013E00000024FF080012046009703D000F0D3FDAB
:1013F000E8B90DE000F0CFFDC8B928882168C0F336
:1014000008004860206908B16D1C05E0AD1C03E0D0
:10141000216815F8010B4860E08C0028D8D14B46B4
:10142000002240212046009700F0B5FD08B10320BE
:10143000CCE7202084F8390084F838800020C5E704
:101440000220C3E77047FEE70148FFF721B900001B
:10145000400000200148FFF783B900004000002051
:1014600010B5406A01680A6822F480620A600021AF
:101470004185426B5163826B516390F83D3020226D
:10148000602B80F83D2080F83E1007D001680A6884
:1014900022F001020A60FFF75BFA10BD01640168E7
:1014A0000A6822F001020A60FFF7F0F810BD0000A0
:1014B00070B590F83D1004460025202600682929C3
:1014C0002DD02A292BD094F83D10602904D04168F2
:1014D000090501D484F83D60256384F83E50016815
:1014E00021F40061016020684168090537D5416831
:1014F00021F400614160606B344990F82120012A99
:1015000012D04163606BFEF779FF38B32068016841
:1015100021F00101016084F83D60606B1CE02563EF
:10152000282184F83D10DAE7A06B4163A06BFEF739
:1015300065FF98B120684169C943490604D401692F
:10154000606A421C626201702068016821F001013A
:10155000016084F83D60A06B416B88470FE094F810
:101560003D1060291DD04169C943490604D4016971
:10157000606A421C626201702046FFF7E9F994F844
:101580003D0028280CD1206C400709D51048E062A6
:10159000256384F83D6084F83E502046FFF77AFAD0
:1015A00070BD84F83D6025644169C943490604D48F
:1015B0000169606A421C626201702068016821F062
:1015C000010101602046FFF761F8D8E761140008C7
:1015D0000000FFFF10B5C26A448D2F4B0168032C39
:1015E00003D0448D022C15D00AE0042A03D0082A27
:1015F00001D09A4203D10A6822F480620A6001682D
:101600000A69416A4B1C43620A70418D491E41853B
:10161000002010BD042A12D0082A10D09A420ED001
:10162000022A0A6802D022F4806201E042F4806259
:101630000A6001684A6822F440724A6008E04A6819
:1016400022F440724A6001680A6842F400720A603B
:1016500001680A69416A4B1C43620A70418D491E48
:10166000418501680A69416A4B1C43620A70418DD9
:10167000491E4185202180F83D100021016390F82A
:101680003E2080F83E10402A02D0FFF704FABFE760
:10169000FFF703FABCE700000000FFFF10B590F869
:1016A0003D1022294CD1418D032909D901680A69CD
:1016B000416A4B1C43620A70418D491E41853FE0DF
:1016C000022909D0032907D0C16A022901680A68E2
:1016D00018D022F4806217E0C16A022901680A6802
:1016E00007D022F480620A6001680A6842F400624E
:1016F00001E042F480620A600068416821F4806180
:1017000041601DE042F480620A6001684A6822F488
:10171000E0624A6001680A69416A4B1C43620A70D0
:10172000418D491E4185202180F83D100021016333
:1017300090F83E2080F83E10402A03D0FFF7ABF926
:10174000002010BDFFF7A9F9FAE710B5C26A90F8BA
:101750003D10212921D1418D49B1416A4A1C426283
:10176000026809781161418D491E418515E02023E9
:101770000021042A13D0082A11D012F5803F0ED080
:101780000268546824F4E06454601122026380F813
:101790003E1080F83D30FFF77FF9002010BD026851
:1017A000546824F4E06454600268146844F40074DB
:1017B0001460016380F83D3090F83E2080F83E10C0
:1017C000402AE8D1FFF76AF9E7E7000010B590F882
:1017D0003D1090F83E30C26A048D24B1212934D0E6
:1017E000402B30D074E02129FAD120230021042A93
:1017F00013D0082A11D012F5803F0ED00268546829
:1018000024F4E06454601122026380F83E1080F8F2
:101810003D3000BFFFF740F95AE00268546824F4F5
:10182000E06454600268146844F400741460016356
:1018300080F83D3090F83E2080F83E10402AE9D1F3
:10184000FFF72CF944E0222942D1418D21B190F8D3
:101850003E10402906D032E00068416821F48061E2
:10186000416035E0016D31B1016D012911D0016D8B
:10187000022915D02CE0C16C0129816C02D0C1F382
:10188000072108E00268C9B21161016D891C016578
:101890001EE0816CC9B202681161016D491CF6E756
:1018A00090F83D10222904D090F83D10212906D04F
:1018B0000EE00068016841F48071016008E0416A4F
:1018C0004A1C4262026809781161418D491E4185B6
:1018D000002010BD78B590F83E50C26A046B90F8B5
:1018E0003D6000230168222E06D1066D0EB9402D01
:1018F00002D0056D25B107E04869886900901CE0B9
:101900000569B5F5404F1AD0458D85B3458D012D3C
:1019100020D0428D022A4AD00A6842F480620A60CE
:1019200001684A68120503D54A6842F480524A6049
:1019300001684A69896900910365002078BD4A6998
:101940008A6900920A6842F480720A60016D491C3B
:101950000165F2E712F5803F0AD0042A21D0082A57
:101960001FD0122C1DD0C26A022A09D114E00BE04C
:101970000A6822F480620A6001684A68120503D589
:101980000A6822F480620AE04A698A6900920A6859
:1019900042F400720A60CFE70A6842F480620A608B
:1019A000C6E70A6822F480620A600168ECE7C26A4E
:1019B000022A0A680BD042F400620A6001684A6990
:1019C0008A6900920A6822F480620A6006E042F4A2
:1019D00080620A6001684A698969009101684A6801
:1019E0001205A9D54A6842F480524A60A4E790F8EB
:1019F0003E10402909D00169B1F5804F10D0016D2A
:101A000099B1016D012915D01CE0016D19B9416C26
:101A100001F0FE0114E0416CC9B241F001010FE098
:101A200090F83D102129F6D1F1E7416CF02201F444
:101A3000407103E0416CF12201F4407142EAD1119E
:101A400000680161002070472DE9F04190F83D40A9
:101A5000C26A00231C4F202601686FF48065042AA7
:101A600001D0082A01D1282C05D0212C17D04D6196
:101A70000020BDE8F081C7624A6822F4E0624A6053
:101A800001684D6101680A6822F480620A6003639C
:101A900080F83D6080F83E30FEF7FCFFE8E7C76263
:101AA0002122026380F83D6080F83E304A6822F4CB
:101AB000E0624A6001684D6101680A6822F4806250
:101AC0000A60FFF72CF8D3E70000FFFF38B590F865
:101AD0003D2001684B6823F4E0634B6003680021FC
:101AE0005C6900941C6844F001041C6003681C6875
:101AF00024F480641C6003685C6824050BD590F8AE
:101B00003D40222C2BD090F83D402A2C27D0446B0E
:101B1000246864684485448DE4B15C69E4436407E7
:101B200007D41C69436A5D1C45621C70438D5B1EB3
:101B3000438503685C69E443640607D41C69436A0F
:101B40005D1C45621C70438D5B1E4385036C43F036
:101B500004030364036C23B1FFF7AAFC1FE0846B4A
:101B6000D6E72023282A09D02A2A07D0292A05D0F7
:101B7000046B222C0CD0222A0AD010E0094AC2623F
:101B8000016380F83D3080F83E10FEF783FF06E0E9
:101B9000016380F83D3080F83E10FEF7BFFF002063
:101BA00038BD00000000FFFFFEE770470907090E7F
:101BB000002806DA00F00F0000F1E02080F8141D84
:101BC000704700F1E02080F8001470477047000073
:101BD00030B5002340F2F4641A46A04200DA012333
:101BE0002148D0E9035431B1A3421ED003B10222EF
:101BF000012D09D009E0AB4217D003B10122012C1D
:101C000000D1921CC36001E0521C03618168042969
:101C100001DA491C8160D0E903310B43134906D036
:101C2000836801EB830141F8042C406930BD826870
:101C3000042A16D14C680D49012CD1E902320A4917
:101C4000496902D0022C06D00BE0032B09D1022AED
:101C500007D1491C04E0032B03D1012A01D1491EFD
:101C6000416101218160E0E7000000203000002098
:101C70007047FEF755BF10B590B028216846FEF7B3
:101C800068FA14210AA8FEF764FA022000900120E5
:101C9000049010200024059007946846FFF7E2F8AE
:101CA0000F20CDE90A040C940D9400210AA80E948B
:101CB000FEF7CCFF10B010BD0D48016841F00101E6
:101CC000016041680B4A1140416001680A4A1140B5
:101CD0000160016821F480210160416821F4FE0166
:101CE00041604FF41F0181600449C00308607047E0
:101CF000001002400000FFF8FFFFF6FE08ED00E0D4
:101D000010B5406A0021C185C184FFF741FA10BDBA
:101D10000168CA6822F49072CA6001684A6922F0B8
:101D200001024A61202180F83A10704710B590F8FE
:101D30003A10222901D0022010BD8168B1F5805FE0
:101D400011D00169002901681FD0496801F07F03A3
:101D5000816A4A1C82620B70C18D491E0904090CFC
:101D6000C18518D02BE00269816A002A0268526896
:101D700005D0D2B20A80816A491C8162ECE7C2F3C5
:101D800008020A80816A891CF7E74A68816A4B1C4D
:101D900083620A70E0E70168CA6822F02002CA6024
:101DA0000168CA6822F48072CA6001684A6922F038
:101DB00001024A61202180F83A10FFF7E5FA00207D
:101DC00010BD00002DE9F041044600680169E26899
:101DD00021F44051114301612169A0680843616900
:101DE00008432168CA6841F20C639A430243CA60FF
:101DF00020684169A26921F44071114341614C4955
:101E000020686425322688423CD1FEF7E5FF00EBCE
:101E1000C00101EB001061688900B0FBF1F7FEF72B
:101E2000DBFF00EBC00101EB00106168B0468900E8
:101E3000B0FBF1F0B0FBF5F06FF01801484307EB91
:101E4000800106EB0110B0FBF5F000F0F006FEF7A4
:101E5000C3FF00EBC00101EB001061688900B0FB1B
:101E6000F1F0B0FBF5F006EB0016FEF7B5FF00EB66
:101E7000C00101EB001061688900B0FBF1F7FEF7CB
:101E8000ABFF3BE0FEF798FF00EBC00101EB001059
:101E900061688900B0FBF1F7FEF78EFF00EBC0012F
:101EA00001EB00106168B0468900B0FBF1F0B0FBB7
:101EB000F5F06FF01801484307EB800106EB0110C5
:101EC000B0FBF5F000F0F006FEF776FF00EBC00186
:101ED00001EB001061688900B0FBF1F0B0FBF5F098
:101EE00006EB0016FEF768FF00EBC00101EB0010E7
:101EF00061688900B0FBF1F7FEF75EFF00EBC001FF
:101F000001EB001061688900B0FBF1F0B0FBF5F067
:101F10006FF01801484307EB800108EB0110B0FB9C
:101F2000F5F0216800F00F0030448860BDE8F081D2
:101F30000038014090F83910212901D00220704763
:101F40008168B1F5805F016A0BD04A1C02620268A9
:101F500009785160C18C491E0904090CC1840ED056
:101F600017E009880268C1F308015160016900297E
:101F7000016A02D0491C0162ECE7891CFBE7016899
:101F8000CA6822F08002CA600068C16841F040015E
:101F9000C160002070472DE9F041984617460E4673
:101FA0000446069D1DE0681C1BD02DB1FEF768FBA2
:101FB000A0EB0800A84214D92068C16821F4D071B0
:101FC000C1602068416921F001014161202084F84D
:101FD000390084F83A00002084F838000320BDE876
:101FE000F0812068006836EA000004D00020B84282
:101FF000D9D00020F3E70120F9E700000148FFF7FE
:10200000C9B8000094000020FEE738B50C46002156
:102010008DF800106A46E52100F01BFA9DF80010CB
:10202000217038BD7CB50C46054601A900F036F894
:102030006A463121284600F00CFA00280BD19DF8A1
:1020400000109DF8042001F00101914201D101210D
:1020500000E0002121707CBD0122862100F0FDB945
:1020600038B50C466A46962100F0F5F9BDF8001027
:10207000218038BD38B50C466A464B2100F0E9F99D
:10208000C1B29DF80000142802D00A2802D003E053
:10209000012000E00220208048B238BD38B50C464F
:1020A0006A46302100F0D5F99DF8001001F01001CA
:1020B0008DF80010090902D00021217038BD0121DE
:1020C000FBE7000038B50C46FF2121706A468921E4
:1020D00000F0BFF99DF8001001F01F018DF800100D
:1020E000182902D2014A515C217038BD572B0008D3
:1020F00038B50C466A465E2100F0ADF9BDF8001017
:10210000B1F5D77F2ED00EDC602929D006DC1D2941
:1021100022D01E2922D051291BD11FE0AD2921D068
:10212000D62916D11CE040F2E133A1F2E132994206
:102130001CD009DCB1F5E67F16D0A1F50071D939C4
:1021400014D0082905D10FE0AE2A11D0B2F5D87FFE
:102150000ED0012000210DE00F210BE0142109E039
:10216000212107E0322105E0642103E0C82101E0DC
:102170004FF4FA71218038BDF8B5164D06462D246E
:102180002819214610F82D2C304600F066F9641C01
:10219000E4B2872CF4D9304600F053F900208DF8D2
:1021A000000069463046FFF73DFF9DF8000000281B
:1021B000F7D03046FFF750FF304600F046F90922CD
:1021C0000821304600F049F900220B21304600F08A
:1021D00044F9F8BDFC2A000838B50D4604466946A6
:1021E000FFF786FF18B9012D03D0022D1ED0012064
:1021F00038BD14224B21204600F02FF90722602120
:10220000204600F02AF905226321204600F025F936
:1022100038226921204600F020F940F20572782129
:10222000204600F01EF940F206621BE00A224B2114
:10223000204600F012F90F226021204600F00DF92F
:102240000D226321204600F008F9B82269212046BA
:1022500000F003F940F60D727821204600F001F9F4
:1022600040F60E627A21204600F0FBF80028BFD12C
:10227000BDF80010204600F04EF838BDF8B50E4607
:1022800005466A46DE2100F0E6F80446BDF8000087
:10229000C0F30900ADF800007043FDF7D7FF4FF021
:1022A0003332064BFDF760FFFDF7DDFF02466C2180
:1022B000284600F0D4F82046F8BD00003333F13F43
:1022C000F8B515460C4606466A464FF49F7100F075
:1022D000C0F8102C00D91024102D01D9102503E0CE
:1022E0000A2C01D80A2D02D9C7208DF800009DF8CC
:1022F00000207F21304600F0B0F829011039641E1B
:102300002143CAB28021304600F0A7F8F8BD0A4642
:102310007F2100F0A2B8F8B50D4606466946FFF7E2
:10232000A9FE0446BDF8000068B14FF4FA71012817
:102330000BD0642D70D04CDC142D5BD0212D60D0DF
:10234000322D7BD15FE00120F8BD322D26D006DC96
:102350000F2D13D0142D18D0212D6FD117E0642D1F
:1023600025D0C82D2CD08D4268D140F291525E21EB
:10237000304600F076F840F2C15236E01D225E2170
:10238000304600F06EF827222FE0512200E0D622DE
:102390005E21304600F065F86E2226E04FF4D772D9
:1023A0005E21304600F05DF84FF4F4721DE040F21B
:1023B000E1225E21304600F054F84FF4627214E0DE
:1023C00040F2E1325E21304600F04BF840F2964296
:1023D0000BE0C82D29D08D4230D140F28F425E21D2
:1023E000304600F03EF840F2A4426121304600F051
:1023F00038F824E01E225E21304600F032F8222216
:10240000F3E76022C4E7AD225E21304600F029F8F0
:10241000C622EAE700E011E04FF4E6725E213046A2
:1024200000F01FF84FF4F572DFE740F2D9225E2189
:10243000304600F016F84FF43E72D6E701242046ED
:10244000F8BD4022872100F008B80022872100F063
:1024500004B800207047002070470020704700201B
:1024600070470020704700000FB4054B10B503A95A
:10247000044A029800F018F810BC5DF814FB000044
:10248000692700082C00002002E008C8121F08C1BC
:10249000002AFAD170477047002001E001C1121FE5
:1024A000002AFBD1704700002DE9FF4F8DB09B46FD
:1024B0000F460446002606E025280BD05A460F9901
:1024C0009047641C761C20780028F5D111B0304666
:1024D000BDE8F08F0025A8460122984900E0054399
:1024E00014F8013F203B02FA03F00842F7D12078AC
:1024F0002E2817D114F8010F45F004052A280ED014
:102500006FF02F022078A0F1300109290AD808EBDA
:10251000880102EB410100EB0108641CF2E757F867
:10252000048B641C20786C280DD004DC4C2812D05D
:102530006A2811D104E074280DD07A280CD10AE061
:1025400045F4001507E0617845F48015814202D119
:10255000641C05F58015641C2278692A45D008DCC6
:10256000002AB3D0582A69D0632A10D0642A08D12F
:102570003BE0702A67D0732A13D0752A5CD0782A82
:102580005CD010465A460F999047761CD3E017F856
:10259000040B8DF8000000208DF80100E9460120B1
:1025A00003E057F8049B4FF0FF3069074FF0000538
:1025B00001D40AE06D1C45450DDA8542FADB19F8B5
:1025C00005100029F6D106E06D1C8542FCDB19F8E8
:1025D00005100029F8D12E4404E019F8010B5A46E1
:1025E0000F9990476D1EF8D2A5E00A200021CDE991
:1025F0000801C5F3025002280DD001CFC117031EF8
:1026000071F100030DDA4FF0000CD0EB0C006CEB15
:1026100001012D2308E0FF1D27F00707F7E802015D
:10262000EDE72B0504D52B238DF8283001233BE063
:10263000EB0739D02023F7E70A2000E01020002123
:10264000CDE9080107E01020002145F00405CDE99F
:1026500008014FF00808C5F3025002280FD001CF3F
:1026600000214FF0000A2B071FD5702A0DD0DDE99D
:1026700008C38CF0100C5CEA030C0CD015E0FF1DB5
:1026800027F00707F7E80201EBE740228DF8282042
:102690004FF0010A0BE050EA010306D030238DF819
:1026A00028308DF8292002239A46582A04D024A2E3
:1026B0000DF120090B9209E026A2F9E7DDE90823D4
:1026C000FDF7EAFD0B9B9B5C09F8013D50EA010216
:1026D000F4D1ADEB090020300890680701D44FF029
:1026E00001080899884502DDA8EB010000E0002000
:1026F0008046002506E00AA85A46405D0F9990479B
:102700006D1C761C5545F6DB04E030205A460F99C7
:102710009047761CB8F10001A8F10108F5DC05E04E
:1027200019F8010B5A460F999047761C0899481ED4
:1027300008900029F4DC641CC5E6000009280100AB
:102740003031323334353637383961626364656627
:1027500000000000303132333435363738394142E9
:10276000434445460000000013B54FF6FF730122B5
:1027700069460248FEF709FE00981CBD940000203F
:102780002DE9F0418EB000258C488DF81C502E4666
:10279000D0E90010CDE90410FEF7CAF9FFF76BFA93
:1027A0008748089509950A950B95816941F00401C0
:1027B0008161816901F004010091816941F00801A2
:1027C000816180697F4F00F0080000900022202185
:1027D0003846FDF74FFF202008900120CDE909057C
:1027E00002200B9008A93846FDF766FE7748764927
:1027F00001607749C0E901154FF48041C0E90351F8
:1028000045618561C5610562FEF7A4F86F487149AD
:10281000543001604FF41651C0E901150C21C56018
:10282000C0E904518561C561FEF73CFD6A4C40F288
:102830000F1806AA41462088FFF70BFE60609DF83E
:10284000181066A0FFF710FE06AA4FF488712088C2
:10285000FFF7FFFD60609DF8181066A0FFF704FE0B
:102860000DAA41462088FFF7F6FD6060BDF83410E0
:1028700067A0FFF7F9FD07E007A92088FFF7C5FB70
:1028800060600220FDF706FE9DF81C000028F3D0D2
:10289000012220213846FDF7EDFE61A0FFF7E4FD9F
:1028A0002088FFF769FC60606A462E212088FFF7C8
:1028B000D0FD606050B99DF800002E2140F001026B
:1028C0008DF800202088FFF7C8FD60600221208875
:1028D000FFF782FC61680844606032212088FFF7BE
:1028E0001AFD61680844606036212088FFF7C6FC45
:1028F000616810220844606008212088FFF7E0FC2E
:1029000061684FF0FF374018606001D048A038E0A0
:1029100055A0FFF7A9FD2088FFF793FD606007E051
:102920000CA92088FFF77EFB60600220FDF7B2FD56
:102930009DF830000028F3D08DF8305002A920888F
:10294000FFF7C0FB61680844606001A92088FFF7B9
:1029500087FB6168084460602088FFF77DFB616841
:102960004018606001D047A00BE00A20FDF792FDFF
:1029700004A810F826102088FFF7C9FC606030B169
:1029800048A0FFF771FD0EB03846BDE8F081BDF8F4
:102990000400F1B200B2FFF71BF9761C06EBD6710A
:1029A00021F00101761A0090BDF804309DF808204E
:1029B000314646A0FFF758FDBAE70000DC2A0008C0
:1029C00000100240000C0140005400404000002074
:1029D000A08601000038014000000020564C35332D
:1029E0004C3158204D6F64656C5F49443A2025583E
:1029F0000A000000564C35334C3158204D6F647539
:102A00006C655F547970653A2025580A0000000013
:102A1000564C35334C31583A2025580A00000000F6
:102A20004368697020626F6F7465640A000000007B
:102A30004572726F7220696E20496E697469616CAB
:102A4000697A6174696F6E206F7220636F6E666958
:102A50006775726174696F6E206F66207468652097
:102A60006465766963650A00537461727420636FEC
:102A7000756E74696E672070656F706C6520202EAE
:102A80002E2E0A004572726F7220696E206F70657B
:102A9000726174696E672074686520646576696325
:102AA000650A00004572726F7220696E206368616A
:102AB0006E696E67207468652063656E7465722048
:102AC0006F662074686520524F490A0025642C20E7
:102AD00025642C2025642C2025640A00A700000012
:102AE000E7000000000000000000000001020304F5
:102AF00006070809000000000102030400000001AD
:102B000002000208000810010100000000FF000F91
:102B10000000000000200B0000020A210000050058
:102B2000000000C8000038FF010008000001CC0FC1
:102B300001F10D0168008008B8000000000F890055
:102B4000000000000000010F0D0E0E000002C7FF84
:102B50009B000000010000FFFFFF050204010703C6
:102B600000FFFF090DFFFFFFFF0A06FFFF0B0C0030
:102B7000902B00080000002030000000882400088E
:102B8000C02B000830000020A80400009824000892
:102B900052000000000000000100000000000000E2
:102BA0000000000000000000000000000100000024
:102BB000100000000000000000A24A040000000015
:04000005080000ED02
:00000001FF
