:020000040800F2
:10000000A80400200101000843180008DD100008C2
:10001000411800086D0100089D1B00080000000049
:100020000000000000000000000000006718000849
:100030006F0100080000000065180008691800083A
:100040001B0100081B0100081B0100081B01000820
:100050001B0100081B0100081B0100081B01000810
:100060001B0100081B0100081B0100081B01000800
:100070001B0100081B0100081B0100081B010008F0
:100080001B0100081B0100081B0100081B010008E0
:100090001B0100081B0100081B0100081B010008D0
:1000A0001B0100081B0100081B0100081B010008C0
:1000B0001B0100081B0100081B010008ED100008CF
:1000C000E11000081B0100081B0100081B010008CB
:1000D0001B010008911B00081B0100081B01000800
:1000E0001B0100081B0100081B010008DFF80CD0F1
:1000F00000F02AF800480047BD1B0008A8040020B3
:100100000648804706480047FEE7FEE7FEE7FEE7B1
:10011000FEE7FEE7FEE7FEE7FEE7FEE7B1180008B0
:10012000ED000008D2B201E000F8012B491EFBD21D
:1001300070470022F6E710B513460A4604461946F2
:10014000FFF7F0FF204610BD064C074D06E0E068C3
:1001500040F0010394E8070098471034AC42F6D30E
:10016000FFF7C8FF881C0008A81C0008FEE77047BE
:1001700010B590F821100024022903D004218163D6
:1001800001243DE001680A6822F00E020A6001685D
:100190000A6822F001020A601A4A0168914201D1FC
:1001A000012121E0174A1432914201D110211BE0B4
:1001B000144A2832914201D1891515E0114A3C3286
:1001C000914201D189140FE00E4A5032914202D17E
:1001D0004FF4803108E00B4A6432914202D14FF46F
:1001E000801101E04FF08071064A083A5160012108
:1001F00080F82110002180F82010416B01B1884760
:10020000204610BD080002402DE9F84FDFF890A10C
:1002100000220AF1040B144601274FF00F090BF1DD
:10022000040E00BF0B6807FA04F52B40AB4274D1F3
:10023000DFF870C14E68A6EB0C0866452BD00DDCCC
:10024000032E34D005DC36B3012E19D0022E2FD167
:100250001BE0112E16D0122E2AD119E0B8F5881FF6
:1002600019D006DCB8F5803F15D0B8F5801F1FD136
:1002700011E0B8F5001F0ED0B8F5041F18D10AE040
:10028000CA6815E0CA68121D12E0CA6808320FE099
:10029000CA680C320CE08A682AB1012A4FF00802C1
:1002A00003D0456104E0042202E0056100E0002281
:1002B000FF2B01D8064601E000F104064FEA840551
:1002C00001D9A5F12005D6F800C009FA05F82CEAF5
:1002D000080C02FA05F54CEA050CC6F800C04D689A
:1002E000ED0057D5304DAE6946F00106AE61AD69FF
:1002F00024F0030605F0010500952C4D06EB050CD6
:10030000DCF80850A6074FEA167809FA08F6B54354
:10031000274EB04202D1002610E03BE0254EB0420D
:1003200001D101260AE0244EB04201D1022605E0A7
:10033000224EB04201D1032600E0042606FA08F658
:100340002E43CCF808604D68DAF80060ED0355469E
:1003500001D51E4300E09E432E604D68DBF800602F
:10036000AD035D4601D51E4300E09E432E604D68FF
:10037000DEF80060ED02754601D51E4300E09E43A5
:100380002E604D68AD020E4D2E6801D51E4300E073
:100390009E432E60641C102CFFF444AFBDE8F88F20
:1003A0000004014000001110001002400000014054
:1003B00000080140000C0140001001400014014001
:1003C0000C0401400AB1016170470904FBE7000019
:1003D00001488068704700000000002070477047A7
:1003E00070B5044600684569466830490D420DD035
:1003F000F1050BD5216C41F0010121646FF480718E
:1004000041612068016841F40041016015F4813FB9
:1004100009D0F00507D5206C40F002002064216867
:100420006FF40070486115F4823F28D0F00526D59E
:1004300094F83E30628D94F83D00216B202B08D15A
:100440003AB921280ED029280CD0282801D12129F9
:1004500008D0206C40F00400206494F83E0010287E
:1004600004D008E0204601F03BF908E0206801686C
:1004700041F40071016021686FF48060486115F4F7
:10048000843F09D0F00507D5206C40F008002064B7
:1004900021686FF400604861206C002804D0204679
:1004A000BDE8704000F050BE70BD000000010100CA
:1004B0002DE9F05F02680446D2F818805569566845
:1004C00090F83E007449DFF8D0A1DFF8CCB1DFF836
:1004D000CC918F1C0AF17E0A0BF13E0B102812D032
:1004E000402810D00D425BD0B00559D59369204605
:1004F0000021DB435B0700D501219269D24312063C
:1005000048D5828947E015F0011F05D0B00503D515
:10051000204601F0B8F810E05F48801D054205D084
:10052000B00503D5606CC0B2106106E00D4204D086
:10053000B00502D5204601F019F818EA090F14D0C9
:1005400015EA0A0F08D0700506D53D4206D12046AF
:10055000BDE8F05F00F086BF3D421FD0B0051DD55D
:100560002046BDE8F05F00F03CBF15EA0B0F08D055
:10057000700506D53D4206D12046BDE8F05F00F08B
:10058000D9BE3D420AD0B00508D52046BDE8F05F8F
:1005900000F06CBE028B92B2FFF721FFBDE8F09F26
:1005A0003D480E30054206D0B00504D52046BDE8D2
:1005B000F05F01F0D7B818EA090F4FF0280134D0E6
:1005C00015EA0A0F23D0700521D53D4221D194F8B8
:1005D0003D302046628D002AE0D0426A541C4462BD
:1005E000046812782261428D521E4285428D002A93
:1005F000D4D1292BD2D10268536823F4806353608D
:100600002122026380F83D1000F031F9C6E73D4237
:10061000C4D0B005C2D5608D0028BFD0606A411C2F
:10062000616221680078086131E015EA0B0F22D081
:10063000700520D53D4220D194F83D302046648D90
:10064000002CABD01469426A551C45621470428D6F
:10065000521E4285428D002AA0D12A2B9ED10268CB
:10066000536823F4806353602222026380F83D10B4
:1006700000F0FCF892E73D4290D0B0058ED5608D39
:1006800000288BD01169606A421C62620170608D23
:10069000401E608582E70000020001000400100097
:1006A0007047000070B504001BD094F83D00002591
:1006B00020B984F83C50204600F09AF8242084F8B1
:1006C0003D002068016821F00101016000F01CFA82
:1006D000404A6168914201D83F4900E03F49884261
:1006E00001D2012070BD3E492368B0FBF1F1596091
:1006F0006368934206D94FF4967359434FF47A7363
:10070000B1FBF3F12368491C19626168914210D86A
:100710004900401EB0FBF1F2521CC2F30B02042A46
:1007200001D2042022E0B0FBF1F0401CC0F30B002A
:100730001CE0A368CBB301EBC10202EB0116421E21
:10074000B2FBF6F2521C42F48042120536D06BB373
:1007500001EBC10202EB0111401EB0FBF1F0401CA5
:10076000C0F30B0040F4804040F400402168C861B1
:10077000D4E90701084321680860D4E9031008435D
:1007800021688860D4E9050108432168C8602068B1
:10079000016841F0010101602564202084F83D00DA
:1007A000256384F83E50002070BD00E008E001EBB6
:1007B0004106421EB2FBF6F2521CC6E70120D5E705
:1007C00001EB4101401EB0FBF1F0401CC0F30B00F7
:1007D000CAE70000A086010080841E0000093D00D9
:1007E00040420F00704770477047704770470000E5
:1007F00010B586B00021009101910291039100682B
:10080000174988422AD1174CA06940F00800A0611E
:10081000A069694600F008000490C02000901220F2
:100820000190032003901048FFF7EEFCE06940F4CC
:100830000010E061E069002200F40010049011460D
:100840001F2000F079F81F2000F06AF800221146FE
:10085000202000F071F8202000F062F806B010BDF2
:100860000054004000100240000C014070477047E7
:1008700002488168027811448160704700000020BE
:10088000074810B5016841F010010160032000F035
:1008900073F8002000F006F800F024F8002010BDE6
:1008A0000020024070B50D4D04464FF47A7128784F
:1008B000B1FBF0F00A490968B1FBF0F000F0FCFA76
:1008C00048B9102C07D200222146501E00F034F8FF
:1008D00000206C6070BD012070BD00000000002091
:1008E0000C0000200C4808B5816941F001018161CC
:1008F000816901F001010091C16941F08051C1613C
:10090000C06900F0805000900448416821F0E06127
:1009100041F00071416008BD00100240000001403C
:1009200000F01F02012191404009800000F1E02009
:10093000C0F8001170470000F0B40E4B1B680C4665
:10094000C3F30223C3F10705042D00D90425191DA3
:10095000072901D2002300E0DB1E012606FA05F17B
:10096000491E214099409E40761E16403143F0BCFE
:1009700000F068BF0CED00E0064900F007020868CF
:100980004FF6FF03184040EA0220034A1043086074
:10099000704700000CED00E00000FA052DE9F0477B
:1009A000DFF8548105460E46D8F8000000F0070035
:1009B000B0420CD2D8F8001021F007013143C8F83A
:1009C0000010D8F8000000F00700B0426FD128688E
:1009D0004A4C810712D5400703D5606840F4E060B7
:1009E00060602878000703D5606840F4605060605C
:1009F0006068A96820F0F000084360602878C007AC
:100A000044D06868012816D02168022816D08907CA
:100A100000294CDA616821F0030101436160FFF7AE
:100A2000D7FC6968074641F2883001290ED00229B7
:100A3000814618D026E021688903E9E78901E7E7C4
:100A4000FFF7C6FCC11B494501D918E08146606823
:100A5000C0F381000128F3D118E000BFFFF7B8FC14
:100A6000C11B49450BD86068C0F381000228F5D14D
:100A70000CE000BFFFF7ACFCC11B494502D90320C5
:100A8000BDE8F087606810F00C0FF3D1D8F80010C3
:100A9000404601F00701B1420BD9016821F007017E
:100AA00031430160006800F00700B04201D001202E
:100AB000E6E72878400705D56068E96820F4E0603B
:100AC000084360602878000706D56068296920F42B
:100AD000605040EAC100606000F036F86168084A82
:100AE000C1F30311515CC840064908600020FFF7BC
:100AF000D9FE0020C4E700000020024000100240A0
:100B0000701C00080C000020044805490068496872
:100B1000044AC1F30221515CC84070470C00002018
:100B200000100240801C000804480549006849681C
:100B3000044AC1F3C221515CC84070470C00002038
:100B400000100240801C000812A185B00FC98DE87A
:100B50000F0014A0144A006804905168134801F073
:100B60000C03042B10D0082B0ED1C1F38343C9030F
:100B70001DF803000AD5516804AAC1F34041515C35
:100B80000A4A5043B0FBF1F005B0704708494843AA
:100B9000FAE7000002030405060708090A0B0C0D1A
:100BA0000E0F1010010200000010024000127A0027
:100BB00000093D002DE9F84F04460078B94DC00703
:100BC00048D06868C0F38100012807D06868C0F386
:100BD0008100022809D16868C00306D5286880030F
:100BE00038D5606800286FD034E06068B0F5803F89
:100BF0000BD010B1B0F5A02F11D0286820F48030B0
:100C00002860286820F4802002E0286840F48030C2
:100C10002860606888B1FFF7DBFB064609E02868BA
:100C200040F480202860F0E7FFF7D2FB801B6428A7
:100C300075D828688003F7D50CE0FFF7C9FB064696
:100C400005E000BFFFF7C4FB801B6428F0D82868CC
:100C50008003F7D42078944E80074FF001094FF0BD
:100C600000083BD5686810F00C0F07D06868C0F327
:100C70008100022809D16868C00306D4286880076B
:100C800014D5206901281FD110E02069B0B1C6F841
:100C90000090FFF79DFB074605E000BFFFF798FBBC
:100CA000C01B0228C4D828688007F7D52868616966
:100CB00020F0F80040EAC10028600FE0C6F800808C
:100CC000FFF786FB074606E0E9E000BFFFF780FB81
:100CD000C01B022823D828688007F7D42078000793
:100CE0002CD57248A169D9B1C0F80090FFF770FB0C
:100CF000074604E0FFF76CFBC01B02280FD8686AA8
:100D00008007F7D56A484FF4FA510068B0FBF1F05C
:100D1000009000BF0098411E0091FAD20EE080E0E2
:100D2000C0F80080FFF754FB074604E0FFF750FBD4
:100D3000C01B022875D8686A8007F7D4207840075E
:100D400060D5E8690027C00008D4E86940F0805009
:100D5000E861E869012700F080500090554801687B
:100D6000C90513D40168834641F480710160FFF71F
:100D70002FFB824606E000BFFFF72AFBA0EB0A002C
:100D800064284ED8DBF80000C005F5D5E0680128DE
:100D90000AD008B1052813D0286A20F00100286283
:100DA000286A20F0040002E0286A40F0010028626E
:100DB000E06841F2883B98B1FFF70AFB82460BE0FE
:100DC000286A40F004002862EEE700BFFFF700FB4E
:100DD000A0EB0A0159455AD8286A8007F6D50CE0DD
:100DE000FFF7F6FA824605E0FFF7F2FAA0EB0A01F8
:100DF00059454CD8286A8007F6D41FB1E86920F01D
:100E00008050E861E06988B36968C1F38101022913
:100E100045D00228C6F8608004D0FFF7D9FA04460E
:100E200038E034E0FFF7D4FA074604E0FFF7D0FAE1
:100E3000C01B02282BD828688001F7D4206AB0F59F
:100E4000803F05D16868A16820F4003008436860DD
:100E5000D4E908010843696821F474110843686003
:100E6000C6F86090FFF7B4FA044606E015E000BF4C
:100E7000FFF7AEFA001B022809D828688001F7D5D1
:100E80000BE000BFFFF7A4FA001B022802D90320E1
:100E9000BDE8F88F28688001F4D40020F8E701202D
:100EA000F6E7000000100240000042428004424287
:100EB0000C0000200070004010B5401EB0F1807F93
:100EC00001D3012010BD4FF0E02460610F216017B5
:100ED00000F0B8FC0020A06107202061002010BDB8
:100EE0007047000070B5026804461068D168536905
:100EF00010F00F0F50D003F0010501F49076354348
:100F00005DD0C20705D0CA0503D5E26B42F00102ED
:100F1000E263420705D5DA0703D0E26B42F0020232
:100F2000E263820705D5DA0703D0E26B42F00402E0
:100F3000E263020705D5DA0703D0E26B42F008024C
:100F4000E263E26B002A33D0800604D5880602D51E
:100F5000204600F0E7FC20684069E16BC0F3801098
:100F6000090700D428B3204600F0CEFC2068416970
:100F700049061AD5416921F040014161606BA0B179
:100F80001B494163606BFFF7F3F8002810D0606BDA
:100F9000416BBDE870400847830610D58B060ED51F
:100FA0002046BDE8704000F0BDBC2046FFF798FF2A
:100FB00070BD2046FFF794FF0020E06370BD03067C
:100FC00006D50B0604D52046BDE8704000F0AEBD46
:100FD0004006F3D54806F1D5D168204621F04001FE
:100FE000D160202184F8391000F077F870BD00003E
:100FF000F918000870B5040004D094F839000025F1
:1010000010B106E0012070BD84F83850204600F091
:1010100023F8242084F839002068C16821F40051A5
:10102000C160204600F0CAFC2068016921F49041AB
:1010300001612068416921F02A0141612068C1688D
:1010400041F40051C160E563202084F8390084F840
:101050003A00002070BD000030B585B00024009437
:101060000194029403940068184988422CD11848CE
:10107000816941F480418161816901F48041049179
:10108000816941F0040181618069124D00F0040022
:1010900004904FF400700090022001900320039010
:1010A00069462846FFF7B0F82815CDE900046946DF
:1010B00028460294FFF7A8F8002211462520FFF7E2
:1010C0003BFC2520FFF72CFC05B030BD003801406B
:1010D000001002400008014070477047FEE7000022
:1010E0000148FFF77DB90000100000200148FFF71C
:1010F000DFB900001000002010B5406A01680A68DE
:1011000022F480620A6000214185426B5163826B48
:10111000516390F83D302022602B80F83D2080F80C
:101120003E1007D001680A6822F001020A60FFF74A
:10113000B7FA10BD016401680A6822F001020A6072
:10114000FFF74CF910BD000070B590F83D10044653
:1011500000252026006829292DD02A292BD094F893
:101160003D10602904D04168090501D484F83D6030
:10117000256384F83E50016821F400610160206815
:101180004168090537D5416821F400614160606B11
:10119000344990F82120012A12D04163606BFEF798
:1011A000E7FF38B32068016821F00101016084F88D
:1011B0003D60606B1CE02563282184F83D10DAE770
:1011C000A06B4163A06BFEF7D3FF98B12068416923
:1011D000C943490604D40169606A421C6262017015
:1011E0002068016821F00101016084F83D60A06B76
:1011F000416B88470FE094F83D1060291DD041698C
:10120000C943490604D40169606A421C62620170E4
:101210002046FFF745FA94F83D0028280CD1206CB1
:10122000400709D51048E062256384F83D6084F8E2
:101230003E502046FFF7D6FA70BD84F83D60256425
:101240004169C943490604D40169606A421C62626B
:1012500001702068016821F0010101602046FFF75C
:10126000BDF8D8E7F91000080000FFFF10B5C26A0A
:10127000448D2F4B0168032C03D0448D022C15D0D4
:101280000AE0042A03D0082A01D09A4203D10A684E
:1012900022F480620A6001680A69416A4B1C436259
:1012A0000A70418D491E4185002010BD042A12D0CC
:1012B000082A10D09A420ED0022A0A6802D022F4DC
:1012C000806201E042F480620A6001684A6822F4A8
:1012D00040724A6008E04A6822F440724A6001683D
:1012E0000A6842F400720A6001680A69416A4B1C8C
:1012F00043620A70418D491E418501680A69416A4D
:101300004B1C43620A70418D491E4185202180F8A3
:101310003D100021016390F83E2080F83E10402AE5
:1013200002D0FFF760FABFE7FFF75FFABCE7000003
:101330000000FFFF10B590F83D1022294CD1418DDF
:10134000032909D901680A69416A4B1C43620A7082
:10135000418D491E41853FE0022909D0032907D06C
:10136000C16A022901680A6818D022F4806217E075
:10137000C16A022901680A6807D022F480620A6003
:1013800001680A6842F4006201E042F480620A6087
:101390000068416821F4806141601DE042F4806290
:1013A0000A6001684A6822F4E0624A6001680A69DA
:1013B000416A4B1C43620A70418D491E41852021C0
:1013C00080F83D100021016390F83E2080F83E1027
:1013D000402A03D0FFF707FA002010BDFFF705FAF7
:1013E000FAE710B5C26A90F83D10212921D1418D4C
:1013F00049B1416A4A1C4262026809781161418D13
:10140000491E418515E020230021042A13D0082A13
:1014100011D012F5803F0ED00268546824F4E064C5
:1014200054601122026380F83E1080F83D30FFF7CF
:10143000DBF9002010BD0268546824F4E0645460B5
:101440000268146844F400741460016380F83D304D
:1014500090F83E2080F83E10402AE8D1FFF7C6F908
:10146000E7E7000010B590F83D1090F83E30C26AF2
:10147000048D24B1212934D0402B30D074E02129AF
:10148000FAD120230021042A13D0082A11D012F502
:10149000803F0ED00268546824F4E0645460112246
:1014A000026380F83E1080F83D3000BFFFF79CF9E2
:1014B0005AE00268546824F4E064546002681468D6
:1014C00044F400741460016380F83D3090F83E20CD
:1014D00080F83E10402AE9D1FFF788F944E022293C
:1014E00042D1418D21B190F83E10402906D032E022
:1014F0000068416821F48061416035E0016D31B1DF
:10150000016D012911D0016D022915D02CE0C16CAB
:101510000129816C02D0C1F3072108E00268C9B239
:101520001161016D891C01651EE0816CC9B2026800
:101530001161016D491CF6E790F83D10222904D095
:1015400090F83D10212906D00EE00068016841F4B2
:101550008071016008E0416A4A1C426202680978B1
:101560001161418D491E4185002010BD78B590F86C
:101570003E50C26A046B90F83D6000230168222E41
:1015800006D1066D0EB9402D02D0056D25B107E0DC
:101590004869886900901CE00569B5F5404F1AD08C
:1015A000458D85B3458D012D20D0428D022A4AD02C
:1015B0000A6842F480620A6001684A68120503D52D
:1015C0004A6842F480524A6001684A698969009118
:1015D0000365002078BD4A698A6900920A6842F46E
:1015E00080720A60016D491C0165F2E712F5803FC7
:1015F0000AD0042A21D0082A1FD0122C1DD0C26A7A
:10160000022A09D114E00BE00A6822F480620A6021
:1016100001684A68120503D50A6822F480620AE06C
:101620004A698A6900920A6842F400720A60CFE748
:101630000A6842F480620A60C6E70A6822F480629F
:101640000A600168ECE7C26A022A0A680BD042F419
:1016500000620A6001684A698A6900920A6822F495
:1016600080620A6006E042F480620A6001684A69AA
:101670008969009101684A681205A9D54A6842F44F
:1016800080524A60A4E790F83E10402909D00169D1
:10169000B1F5804F10D0016D99B1016D012915D0C0
:1016A0001CE0016D19B9416C01F0FE0114E0416CC0
:1016B000C9B241F001010FE090F83D102129F6D1A7
:1016C000F1E7416CF02201F4407103E0416CF1223A
:1016D00001F4407142EAD1110068016100207047B5
:1016E0002DE9F04190F83D40C26A00231C4F2026AE
:1016F00001686FF48065042A01D0082A01D1282CE2
:1017000005D0212C17D04D610020BDE8F081C762C3
:101710004A6822F4E0624A6001684D6101680A6823
:1017200022F480620A60036380F83D6080F83E30F6
:10173000FFF758F8E8E7C7622122026380F83D60AE
:1017400080F83E304A6822F4E0624A6001684D61E8
:1017500001680A6822F480620A60FFF788F8D3E71C
:101760000000FFFF38B590F83D2001684B6823F476
:10177000E0634B60036800215C6900941C6844F0DE
:1017800001041C6003681C6824F480641C60036806
:101790005C6824050BD590F83D40222C2BD090F8A6
:1017A0003D402A2C27D0446B246864684485448DCE
:1017B000E4B15C69E443640707D41C69436A5D1CB7
:1017C00045621C70438D5B1E438503685C69E4437E
:1017D000640607D41C69436A5D1C45621C70438D16
:1017E0005B1E4385036C43F004030364036C23B165
:1017F000FFF7AAFC1FE0846BD6E72023282A09D034
:101800002A2A07D0292A05D0046B222C0CD0222AA0
:101810000AD010E0094AC262016380F83D3080F8C6
:101820003E10FEF7DFFF06E0016380F83D3080F8F0
:101830003E10FFF71BF8002038BD00000000FFFF3E
:10184000FEE770470907090E002806DA00F00F00CE
:1018500000F1E02080F8141D704700F1E02080F8CE
:101860000014704770477047FFF702B810B590B08A
:1018700028216846FEF75DFC14210AA8FEF759FCF2
:10188000022000900120049010200024059007946D
:101890006846FFF78FF90F20CDE90A040C940D94E8
:1018A00000210AA80E94FFF779F810B010BD0000CF
:1018B0000D48016841F00101016041680B4A114087
:1018C000416001680A4A11400160016821F48021E9
:1018D0000160416821F4FE0141604FF41F01816005
:1018E0000449C00308607047001002400000FFF880
:1018F000FFFFF6FE08ED00E010B5406A0021C1854B
:10190000C184FFF7EDFA10BD0168CA6822F4907235
:10191000CA6001684A6922F001024A61202180F808
:101920003A10704710B590F83A10222901D00220E1
:1019300010BD8168B1F5805F11D00169002901688F
:101940001FD0496801F07F03816A4A1C82620B70D4
:10195000C18D491E0904090CC18518D02BE002690C
:10196000816A002A0268526805D0D2B20A80816A70
:10197000491C8162ECE7C2F308020A80816A891C73
:10198000F7E74A68816A4B1C83620A70E0E70168E6
:10199000CA6822F02002CA600168CA6822F4807214
:1019A000CA6001684A6922F001024A61202180F878
:1019B0003A10FFF791FB002010BD00002DE9F04127
:1019C000044600680169E26821F440511143016155
:1019D0002169A0680843616908432168CA6841F227
:1019E0000C639A430243CA6020684169A26921F4EA
:1019F0004071114341614C49206864253226884278
:101A00003CD1FFF791F800EBC00101EB00106168D9
:101A10008900B0FBF1F7FFF787F800EBC00101EB9D
:101A200000106168B0468900B0FBF1F0B0FBF5F042
:101A30006FF01801484307EB800106EB0110B0FB83
:101A4000F5F000F0F006FFF76FF800EBC00101EBD6
:101A5000001061688900B0FBF1F0B0FBF5F006EB17
:101A60000016FFF761F800EBC00101EB00106168A0
:101A70008900B0FBF1F7FFF757F83BE0FFF744F8B8
:101A800000EBC00101EB001061688900B0FBF1F7C9
:101A9000FFF73AF800EBC00101EB00106168B046B7
:101AA0008900B0FBF1F0B0FBF5F06FF0180148438E
:101AB00007EB800106EB0110B0FBF5F000F0F0063B
:101AC000FFF722F800EBC00101EB0010616889000C
:101AD000B0FBF1F0B0FBF5F006EB0016FFF714F8E1
:101AE00000EBC00101EB001061688900B0FBF1F769
:101AF000FFF70AF800EBC00101EB001061688900F4
:101B0000B0FBF1F0B0FBF5F06FF01801484307EBC4
:101B1000800108EB0110B0FBF5F0216800F00F0028
:101B200030448860BDE8F0810038014090F83910F9
:101B3000212901D0022070478168B1F5805F016AD8
:101B40000BD04A1C0262026809785160C18C491EA0
:101B50000904090CC1840ED017E009880268C1F39A
:101B60000801516001690029016A02D0491C016223
:101B7000ECE7891CFBE70168CA6822F08002CA60B2
:101B80000068C16841F04001C1600020704700005A
:101B90000148FFF7A7B9000064000020FEE702E05B
:101BA00008C8121F08C1002AFAD1704770470020E8
:101BB00001E001C1121F002AFBD1704786B0FEF779
:101BC0005FFEFFF753FE0024234800940194029423
:101BD0000394816941F004018161816901F004018C
:101BE0000491816941F00801816180691B4D00F019
:101BF00008000490002220212846FEF7E3FB202065
:101C000000900120CDE90104022003906946284696
:101C1000FEF7FAFA1348124901601349C0E90114AA
:101C20004FF48041C0E9034144618461C4610462AE
:101C3000FEF738FD0B480D49543001604FF4E13197
:101C4000C0E901140C21C460C0E904418461C4618D
:101C5000FFF7D0F9FEE7000000100240000C014041
:101C60000054004010000020A08601000038014010
:101C7000000000000000000001020304060708093C
:101C80000000000001020304A81C0008000000205E
:101C9000100000009E1B0008B81C00081000002067
:101CA00098040000AE1B00080100000010000000B6
:081CB0000000000000A24A043C
:04000005080000ED02
:00000001FF
